{
  "contractName": "SimpleStorage",
  "abi": [
    {
      "inputs": [],
      "payable": false,
      "stateMutability": "nonpayable",
      "type": "constructor"
    },
    {
      "constant": true,
      "inputs": [
        {
          "internalType": "uint256",
          "name": "",
          "type": "uint256"
        }
      ],
      "name": "content",
      "outputs": [
        {
          "internalType": "uint256",
          "name": "id",
          "type": "uint256"
        },
        {
          "internalType": "string",
          "name": "contentType",
          "type": "string"
        },
        {
          "internalType": "string",
          "name": "contentHash",
          "type": "string"
        },
        {
          "internalType": "string",
          "name": "description",
          "type": "string"
        },
        {
          "internalType": "string",
          "name": "title",
          "type": "string"
        },
        {
          "internalType": "string",
          "name": "author",
          "type": "string"
        },
        {
          "internalType": "address",
          "name": "authorAddress",
          "type": "address"
        },
        {
          "internalType": "bool",
          "name": "isRemoved",
          "type": "bool"
        }
      ],
      "payable": false,
      "stateMutability": "view",
      "type": "function"
    },
    {
      "constant": true,
      "inputs": [],
      "name": "contentCount",
      "outputs": [
        {
          "internalType": "uint256",
          "name": "",
          "type": "uint256"
        }
      ],
      "payable": false,
      "stateMutability": "view",
      "type": "function"
    },
    {
      "constant": true,
      "inputs": [
        {
          "internalType": "address",
          "name": "",
          "type": "address"
        }
      ],
      "name": "creator",
      "outputs": [
        {
          "internalType": "uint256",
          "name": "id",
          "type": "uint256"
        },
        {
          "internalType": "string",
          "name": "creatorName",
          "type": "string"
        },
        {
          "internalType": "address",
          "name": "creatorAddress",
          "type": "address"
        },
        {
          "internalType": "bool",
          "name": "isRegistered",
          "type": "bool"
        }
      ],
      "payable": false,
      "stateMutability": "view",
      "type": "function"
    },
    {
      "constant": true,
      "inputs": [],
      "name": "creatorCount",
      "outputs": [
        {
          "internalType": "uint256",
          "name": "",
          "type": "uint256"
        }
      ],
      "payable": false,
      "stateMutability": "view",
      "type": "function"
    },
    {
      "constant": true,
      "inputs": [],
      "name": "owner",
      "outputs": [
        {
          "internalType": "address",
          "name": "",
          "type": "address"
        }
      ],
      "payable": false,
      "stateMutability": "view",
      "type": "function"
    },
    {
      "constant": true,
      "inputs": [
        {
          "internalType": "address",
          "name": "_address",
          "type": "address"
        }
      ],
      "name": "getCreator",
      "outputs": [
        {
          "components": [
            {
              "internalType": "uint256",
              "name": "id",
              "type": "uint256"
            },
            {
              "internalType": "string",
              "name": "creatorName",
              "type": "string"
            },
            {
              "internalType": "address",
              "name": "creatorAddress",
              "type": "address"
            },
            {
              "internalType": "uint256[]",
              "name": "creatorContentId",
              "type": "uint256[]"
            },
            {
              "internalType": "bool",
              "name": "isRegistered",
              "type": "bool"
            }
          ],
          "internalType": "struct SimpleStorage.Creator",
          "name": "",
          "type": "tuple"
        }
      ],
      "payable": false,
      "stateMutability": "view",
      "type": "function"
    },
    {
      "constant": true,
      "inputs": [
        {
          "internalType": "uint256",
          "name": "_id",
          "type": "uint256"
        }
      ],
      "name": "getContent",
      "outputs": [
        {
          "components": [
            {
              "internalType": "uint256",
              "name": "id",
              "type": "uint256"
            },
            {
              "internalType": "string",
              "name": "contentType",
              "type": "string"
            },
            {
              "internalType": "string",
              "name": "contentHash",
              "type": "string"
            },
            {
              "internalType": "string",
              "name": "description",
              "type": "string"
            },
            {
              "internalType": "string",
              "name": "title",
              "type": "string"
            },
            {
              "internalType": "string",
              "name": "author",
              "type": "string"
            },
            {
              "internalType": "address",
              "name": "authorAddress",
              "type": "address"
            },
            {
              "internalType": "bool",
              "name": "isRemoved",
              "type": "bool"
            }
          ],
          "internalType": "struct SimpleStorage.Content",
          "name": "",
          "type": "tuple"
        }
      ],
      "payable": false,
      "stateMutability": "view",
      "type": "function"
    },
    {
      "constant": false,
      "inputs": [
        {
          "internalType": "uint256",
          "name": "_id",
          "type": "uint256"
        }
      ],
      "name": "deleteContent",
      "outputs": [],
      "payable": true,
      "stateMutability": "payable",
      "type": "function"
    },
    {
      "constant": false,
      "inputs": [
        {
          "internalType": "uint256",
          "name": "_id",
          "type": "uint256"
        }
      ],
      "name": "restoreContent",
      "outputs": [],
      "payable": true,
      "stateMutability": "payable",
      "type": "function"
    },
    {
      "constant": false,
      "inputs": [
        {
          "internalType": "string",
          "name": "_name",
          "type": "string"
        },
        {
          "internalType": "string",
          "name": "_contentType",
          "type": "string"
        },
        {
          "internalType": "string",
          "name": "_contentHash",
          "type": "string"
        },
        {
          "internalType": "string",
          "name": "_description",
          "type": "string"
        },
        {
          "internalType": "string",
          "name": "_title",
          "type": "string"
        }
      ],
      "name": "addContent",
      "outputs": [],
      "payable": false,
      "stateMutability": "nonpayable",
      "type": "function"
    }
  ],
  "bytecode": "0x608060405234801561001057600080fd5b50336000806101000a81548173ffffffffffffffffffffffffffffffffffffffff021916908373ffffffffffffffffffffffffffffffffffffffff160217905550611d1f806100606000396000f3fe6080604052600436106100915760003560e01c8063cc45969611610059578063cc4596961461019b578063d82faa48146101c6578063f1bc1b1a146101f1578063fc0cdf761461021a578063fed216cb1461025a57610091565b80630b7ad54c1461009657806329ffaa55146100d35780638da5cb5b146100ef578063a02103091461011a578063baa0b80614610157575b600080fd5b3480156100a257600080fd5b506100bd60048036036100b891908101906116d9565b610276565b6040516100ca9190611a08565b60405180910390f35b6100ed60048036036100e891908101906116d9565b610649565b005b3480156100fb57600080fd5b50610104610721565b60405161011191906119cd565b60405180910390f35b34801561012657600080fd5b50610141600480360361013c91908101906115c1565b610746565b60405161014e9190611a2a565b60405180910390f35b34801561016357600080fd5b5061017e600480360361017991908101906116d9565b610914565b604051610192989796959493929190611ab3565b60405180910390f35b3480156101a757600080fd5b506101b0610c81565b6040516101bd9190611a4c565b60405180910390f35b3480156101d257600080fd5b506101db610c87565b6040516101e89190611a4c565b60405180910390f35b3480156101fd57600080fd5b50610218600480360361021391908101906115ea565b610c8d565b005b34801561022657600080fd5b50610241600480360361023c91908101906115c1565b6111e0565b6040516102519493929190611a67565b60405180910390f35b610274600480360361026f91908101906116d9565b6112d5565b005b61027e6113ad565b600360008381526020019081526020016000206040518061010001604052908160008201548152602001600182018054600181600116156101000203166002900480601f0160208091040260200160405190810160405280929190818152602001828054600181600116156101000203166002900480156103405780601f1061031557610100808354040283529160200191610340565b820191906000526020600020905b81548152906001019060200180831161032357829003601f168201915b50505050508152602001600282018054600181600116156101000203166002900480601f0160208091040260200160405190810160405280929190818152602001828054600181600116156101000203166002900480156103e25780601f106103b7576101008083540402835291602001916103e2565b820191906000526020600020905b8154815290600101906020018083116103c557829003601f168201915b50505050508152602001600382018054600181600116156101000203166002900480601f0160208091040260200160405190810160405280929190818152602001828054600181600116156101000203166002900480156104845780601f1061045957610100808354040283529160200191610484565b820191906000526020600020905b81548152906001019060200180831161046757829003601f168201915b50505050508152602001600482018054600181600116156101000203166002900480601f0160208091040260200160405190810160405280929190818152602001828054600181600116156101000203166002900480156105265780601f106104fb57610100808354040283529160200191610526565b820191906000526020600020905b81548152906001019060200180831161050957829003601f168201915b50505050508152602001600582018054600181600116156101000203166002900480601f0160208091040260200160405190810160405280929190818152602001828054600181600116156101000203166002900480156105c85780601f1061059d576101008083540402835291602001916105c8565b820191906000526020600020905b8154815290600101906020018083116105ab57829003601f168201915b505050505081526020016006820160009054906101000a900473ffffffffffffffffffffffffffffffffffffffff1673ffffffffffffffffffffffffffffffffffffffff1673ffffffffffffffffffffffffffffffffffffffff1681526020016006820160149054906101000a900460ff1615151515815250509050919050565b806003600082815260200190815260200160002060060160009054906101000a900473ffffffffffffffffffffffffffffffffffffffff1673ffffffffffffffffffffffffffffffffffffffff163373ffffffffffffffffffffffffffffffffffffffff16146106ee576040517f08c379a00000000000000000000000000000000000000000000000000000000081526004016106e5906119e8565b60405180910390fd5b60006003600084815260200190815260200160002060060160146101000a81548160ff0219169083151502179055505050565b6000809054906101000a900473ffffffffffffffffffffffffffffffffffffffff1681565b61074e61140a565b600460008373ffffffffffffffffffffffffffffffffffffffff1673ffffffffffffffffffffffffffffffffffffffff1681526020019081526020016000206040518060a001604052908160008201548152602001600182018054600181600116156101000203166002900480601f01602080910402602001604051908101604052809291908181526020018280546001816001161561010002031660029004801561083b5780601f106108105761010080835404028352916020019161083b565b820191906000526020600020905b81548152906001019060200180831161081e57829003601f168201915b505050505081526020016002820160009054906101000a900473ffffffffffffffffffffffffffffffffffffffff1673ffffffffffffffffffffffffffffffffffffffff1673ffffffffffffffffffffffffffffffffffffffff168152602001600382018054806020026020016040519081016040528092919081815260200182805480156108e957602002820191906000526020600020905b8154815260200190600101908083116108d5575b505050505081526020016004820160009054906101000a900460ff1615151515815250509050919050565b6003602052806000526040600020600091509050806000015490806001018054600181600116156101000203166002900480601f0160208091040260200160405190810160405280929190818152602001828054600181600116156101000203166002900480156109c65780601f1061099b576101008083540402835291602001916109c6565b820191906000526020600020905b8154815290600101906020018083116109a957829003601f168201915b505050505090806002018054600181600116156101000203166002900480601f016020809104026020016040519081016040528092919081815260200182805460018160011615610100020316600290048015610a645780601f10610a3957610100808354040283529160200191610a64565b820191906000526020600020905b815481529060010190602001808311610a4757829003601f168201915b505050505090806003018054600181600116156101000203166002900480601f016020809104026020016040519081016040528092919081815260200182805460018160011615610100020316600290048015610b025780601f10610ad757610100808354040283529160200191610b02565b820191906000526020600020905b815481529060010190602001808311610ae557829003601f168201915b505050505090806004018054600181600116156101000203166002900480601f016020809104026020016040519081016040528092919081815260200182805460018160011615610100020316600290048015610ba05780601f10610b7557610100808354040283529160200191610ba0565b820191906000526020600020905b815481529060010190602001808311610b8357829003601f168201915b505050505090806005018054600181600116156101000203166002900480601f016020809104026020016040519081016040528092919081815260200182805460018160011615610100020316600290048015610c3e5780601f10610c1357610100808354040283529160200191610c3e565b820191906000526020600020905b815481529060010190602001808311610c2157829003601f168201915b5050505050908060060160009054906101000a900473ffffffffffffffffffffffffffffffffffffffff16908060060160149054906101000a900460ff16905088565b60025481565b60015481565b600260008154809291906001019190505550600460003373ffffffffffffffffffffffffffffffffffffffff1673ffffffffffffffffffffffffffffffffffffffff16815260200190815260200160002060040160009054906101000a900460ff1615610ed657600460003373ffffffffffffffffffffffffffffffffffffffff1673ffffffffffffffffffffffffffffffffffffffff168152602001908152602001600020600301600254908060018154018082558091505090600182039060005260206000200160009091929091909150555060405180610100016040528060025481526020018581526020018481526020018381526020018281526020018681526020013373ffffffffffffffffffffffffffffffffffffffff16815260200160001515815250600360006002548152602001908152602001600020600082015181600001556020820151816001019080519060200190610df2929190611451565b506040820151816002019080519060200190610e0f929190611451565b506060820151816003019080519060200190610e2c929190611451565b506080820151816004019080519060200190610e49929190611451565b5060a0820151816005019080519060200190610e66929190611451565b5060c08201518160060160006101000a81548173ffffffffffffffffffffffffffffffffffffffff021916908373ffffffffffffffffffffffffffffffffffffffff16021790555060e08201518160060160146101000a81548160ff0219169083151502179055509050506111d9565b60016000815480929190600101919050555060606001604051908082528060200260200182016040528015610f1a5781602001602082028038833980820191505090505b50905060025481600081518110610f2d57fe5b6020026020010181815250506040518060a0016040528060015481526020018781526020013373ffffffffffffffffffffffffffffffffffffffff16815260200182815260200160011515815250600460003373ffffffffffffffffffffffffffffffffffffffff1673ffffffffffffffffffffffffffffffffffffffff168152602001908152602001600020600082015181600001556020820151816001019080519060200190610fe0929190611451565b5060408201518160020160006101000a81548173ffffffffffffffffffffffffffffffffffffffff021916908373ffffffffffffffffffffffffffffffffffffffff16021790555060608201518160030190805190602001906110449291906114d1565b5060808201518160040160006101000a81548160ff02191690831515021790555090505060405180610100016040528060025481526020018681526020018581526020018481526020018381526020018781526020013373ffffffffffffffffffffffffffffffffffffffff168152602001600015158152506003600060025481526020019081526020016000206000820151816000015560208201518160010190805190602001906110f8929190611451565b506040820151816002019080519060200190611115929190611451565b506060820151816003019080519060200190611132929190611451565b50608082015181600401908051906020019061114f929190611451565b5060a082015181600501908051906020019061116c929190611451565b5060c08201518160060160006101000a81548173ffffffffffffffffffffffffffffffffffffffff021916908373ffffffffffffffffffffffffffffffffffffffff16021790555060e08201518160060160146101000a81548160ff021916908315150217905550905050505b5050505050565b6004602052806000526040600020600091509050806000015490806001018054600181600116156101000203166002900480601f0160208091040260200160405190810160405280929190818152602001828054600181600116156101000203166002900480156112925780601f1061126757610100808354040283529160200191611292565b820191906000526020600020905b81548152906001019060200180831161127557829003601f168201915b5050505050908060020160009054906101000a900473ffffffffffffffffffffffffffffffffffffffff16908060040160009054906101000a900460ff16905084565b806003600082815260200190815260200160002060060160009054906101000a900473ffffffffffffffffffffffffffffffffffffffff1673ffffffffffffffffffffffffffffffffffffffff163373ffffffffffffffffffffffffffffffffffffffff161461137a576040517f08c379a0000000000000000000000000000000000000000000000000000000008152600401611371906119e8565b60405180910390fd5b60016003600084815260200190815260200160002060060160146101000a81548160ff0219169083151502179055505050565b604051806101000160405280600081526020016060815260200160608152602001606081526020016060815260200160608152602001600073ffffffffffffffffffffffffffffffffffffffff1681526020016000151581525090565b6040518060a001604052806000815260200160608152602001600073ffffffffffffffffffffffffffffffffffffffff168152602001606081526020016000151581525090565b828054600181600116156101000203166002900490600052602060002090601f016020900481019282601f1061149257805160ff19168380011785556114c0565b828001600101855582156114c0579182015b828111156114bf5782518255916020019190600101906114a4565b5b5090506114cd919061151e565b5090565b82805482825590600052602060002090810192821561150d579160200282015b8281111561150c5782518255916020019190600101906114f1565b5b50905061151a919061151e565b5090565b61154091905b8082111561153c576000816000905550600101611524565b5090565b90565b60008135905061155281611cae565b92915050565b600082601f83011261156957600080fd5b813561157c61157782611b81565b611b54565b9150808252602083016020830185838301111561159857600080fd5b6115a3838284611c5b565b50505092915050565b6000813590506115bb81611cc5565b92915050565b6000602082840312156115d357600080fd5b60006115e184828501611543565b91505092915050565b600080600080600060a0868803121561160257600080fd5b600086013567ffffffffffffffff81111561161c57600080fd5b61162888828901611558565b955050602086013567ffffffffffffffff81111561164557600080fd5b61165188828901611558565b945050604086013567ffffffffffffffff81111561166e57600080fd5b61167a88828901611558565b935050606086013567ffffffffffffffff81111561169757600080fd5b6116a388828901611558565b925050608086013567ffffffffffffffff8111156116c057600080fd5b6116cc88828901611558565b9150509295509295909350565b6000602082840312156116eb57600080fd5b60006116f9848285016115ac565b91505092915050565b600061170e83836119af565b60208301905092915050565b61172381611c13565b82525050565b61173281611c13565b82525050565b600061174382611bbd565b61174d8185611be0565b935061175883611bad565b8060005b838110156117895781516117708882611702565b975061177b83611bd3565b92505060018101905061175c565b5085935050505092915050565b61179f81611c25565b82525050565b6117ae81611c25565b82525050565b60006117bf82611bc8565b6117c98185611bf1565b93506117d9818560208601611c6a565b6117e281611c9d565b840191505092915050565b60006117f882611bc8565b6118028185611c02565b9350611812818560208601611c6a565b61181b81611c9d565b840191505092915050565b6000611833601a83611c02565b91507f4f6e6c7920617574686f722063616e2063616c6c20746869732e0000000000006000830152602082019050919050565b60006101008301600083015161187f60008601826119af565b506020830151848203602086015261189782826117b4565b915050604083015184820360408601526118b182826117b4565b915050606083015184820360608601526118cb82826117b4565b915050608083015184820360808601526118e582826117b4565b91505060a083015184820360a08601526118ff82826117b4565b91505060c083015161191460c086018261171a565b5060e083015161192760e0860182611796565b508091505092915050565b600060a08301600083015161194a60008601826119af565b506020830151848203602086015261196282826117b4565b9150506040830151611977604086018261171a565b506060830151848203606086015261198f8282611738565b91505060808301516119a46080860182611796565b508091505092915050565b6119b881611c51565b82525050565b6119c781611c51565b82525050565b60006020820190506119e26000830184611729565b92915050565b60006020820190508181036000830152611a0181611826565b9050919050565b60006020820190508181036000830152611a228184611866565b905092915050565b60006020820190508181036000830152611a448184611932565b905092915050565b6000602082019050611a6160008301846119be565b92915050565b6000608082019050611a7c60008301876119be565b8181036020830152611a8e81866117ed565b9050611a9d6040830185611729565b611aaa60608301846117a5565b95945050505050565b600061010082019050611ac9600083018b6119be565b8181036020830152611adb818a6117ed565b90508181036040830152611aef81896117ed565b90508181036060830152611b0381886117ed565b90508181036080830152611b1781876117ed565b905081810360a0830152611b2b81866117ed565b9050611b3a60c0830185611729565b611b4760e08301846117a5565b9998505050505050505050565b6000604051905081810181811067ffffffffffffffff82111715611b7757600080fd5b8060405250919050565b600067ffffffffffffffff821115611b9857600080fd5b601f19601f8301169050602081019050919050565b6000819050602082019050919050565b600081519050919050565b600081519050919050565b6000602082019050919050565b600082825260208201905092915050565b600082825260208201905092915050565b600082825260208201905092915050565b6000611c1e82611c31565b9050919050565b60008115159050919050565b600073ffffffffffffffffffffffffffffffffffffffff82169050919050565b6000819050919050565b82818337600083830152505050565b60005b83811015611c88578082015181840152602081019050611c6d565b83811115611c97576000848401525b50505050565b6000601f19601f8301169050919050565b611cb781611c13565b8114611cc257600080fd5b50565b611cce81611c51565b8114611cd957600080fd5b5056fea365627a7a7231582045daecb646e677434fe5543132f4ff495524f8f6b3728a7facb16faf1e37dca56c6578706572696d656e74616cf564736f6c63430005100040",
  "source": "pragma solidity ^0.5.16;\npragma experimental ABIEncoderV2;\n\ncontract SimpleStorage {\n    address public owner;\n    uint256 public creatorCount;\n    uint256 public contentCount;\n\n    constructor() public {\n        owner = msg.sender;\n    }\n\n    // Parameters associated with the posted content\n    \n    struct Content {\n        uint256 id;\n        string contentType;   // Project, Paper or Article\n        string contentHash;   // Content's IPFS hash \n        string description;\n        string title;\n        string author;\n        address authorAddress;\n        bool isRemoved;   // Handle to check content's delete status. If deleted, it will be visible only to the author.\n    }\n\n    // Parameters associated with an individual author\n    \n    struct Creator {\n        uint256 id;\n        string creatorName;\n        address creatorAddress;\n        uint256[] creatorContentId;\n        bool isRegistered;   // handle to check for registered addresses\n    }\n\n    mapping(uint256 => Content) public content;\n    mapping(address => Creator) public creator;\n\n    // Funtion to fetch individual author's details\n    \n    function getCreator(address _address) public view returns (Creator memory) {\n        return creator[_address];\n    }\n\n    function getContent(uint256 _id) public view returns (Content memory) {\n        return content[_id];\n    }\n\n    // Set delete status as true to make it visible only to the author\n    \n    function deleteContent(uint256 _id) public payable onlyAuthor(_id) {\n        content[_id].isRemoved = true;\n    }\n\n    // Set delete status as false to make it publicly visible \n    \n    function restoreContent(uint256 _id) public payable onlyAuthor(_id) {\n        content[_id].isRemoved = false;\n    }\n\n    //Modifier to identify Author.\n     \n    modifier onlyAuthor(uint256 _id) {\n        require(\n            msg.sender == content[_id].authorAddress,\n            \"Only author can call this.\"\n        );\n        _;\n    }\n\n    // Adds content to the mapping and updates author's details\n    \n    function addContent(\n        string memory _name,\n        string memory _contentType,\n        string memory _contentHash,\n        string memory _description,\n        string memory _title\n    ) public {\n        contentCount++;\n        \n        // Checks if the content is created by a new author\n        \n        if (creator[msg.sender].isRegistered) {\n            creator[msg.sender].creatorContentId.push(contentCount);\n            content[contentCount] = Content(\n                contentCount,\n                _contentType,\n                _contentHash,\n                _description,\n                _title,\n                _name,\n                msg.sender,\n                false\n            );\n        } else {\n            creatorCount++;\n            uint256[] memory _localArray = new uint256[](1);\n            _localArray[0] = contentCount;\n            creator[msg.sender] = Creator(\n                creatorCount,\n                _name,\n                msg.sender,\n                _localArray,\n                true\n            );\n            content[contentCount] = Content(\n                contentCount,\n                _contentType,\n                _contentHash,\n                _description,\n                _title,\n                _name,\n                msg.sender,\n                false\n            );\n        }\n    }\n}\n",
  "sourcePath": "C:\\Users\\rathan\\Desktop\\OwnerShip-Dapp\\contracts\\SimpleStorage.sol",
  "compiler": {
    "name": "solc",
    "version": "0.5.16+commit.9c3226ce.Emscripten.clang"
  },
  "schemaVersion": "3.4.16",
  "updatedAt": "2023-09-24T07:35:34.217Z",
  "devdoc": {
    "methods": {}
  },
  "userdoc": {
    "methods": {}
  }
}